:100000000C942A000C943F000C943F000C943F0089
:100010000C943F000C943F000C943F000C943F0064
:100020000C943F000C943F000C943F000C943F0054
:100030000C943F000C943F000C943F000C943F0044
:100040000C943F000C943F000C943F000C943F0034
:100050000C943F0011241FBECFE5D8E0DEBFCDBF1A
:1000600010E0A0E6B0E0E2E9F6E002C005900D92F3
:10007000A636B107D9F70E9419030C9447030C94D4
:1000800000008FB780688FBF08958FB78F778FBFBD
:1000900008954130B1F5813099F0813030F08230EF
:1000A000D1F0833009F067C021C02AB381E090E02D
:1000B00002C0880F991F6A95E2F7282B2ABB089582
:1000C00027B381E090E002C0880F991F6A95E2F79C
:1000D000282B27BB089524B381E090E002C0880F4D
:1000E000991F6A95E2F7282B24BB089521B381E07C
:1000F00090E002C0880F991F6A95E2F7282B21BB78
:1001000008954423C1F5813099F0813028F0823080
:10011000D9F0833081F524C02AB381E090E002C099
:10012000880F991F6A95E2F7809582238ABB08950C
:1001300027B381E090E002C0880F991F6A95E2F72B
:100140008095822387BB089524B381E090E002C0AC
:10015000880F991F6A95E2F78095822384BB0895E2
:1001600021B381E090E002C0880F991F6A95E2F701
:100170008095822381BB08954130B1F5813099F09B
:10018000813030F08230D1F0833009F067C021C077
:100190002BB381E090E002C0880F991F6A95E2F7C7
:1001A000282B2BBB089528B381E090E002C0880F74
:1001B000991F6A95E2F7282B28BB089525B381E0A3
:1001C00090E002C0880F991F6A95E2F7282B25BBA3
:1001D000089522B381E090E002C0880F991F6A95CC
:1001E000E2F7282B22BB08954423C1F5813099F012
:1001F000813028F08230D9F0833081F524C02BB3D0
:1002000081E090E002C0880F991F6A95E2F780951F
:1002100082238BBB089528B381E090E002C0880F51
:10022000991F6A95E2F78095822388BB089525B3CC
:1002300081E090E002C0880F991F6A95E2F78095EF
:10024000822385BB089522B381E090E002C0880F2D
:10025000991F6A95E2F78095822382BB08958130C9
:1002600051F0813030F0823041F0833079F080E01D
:10027000089589B303C086B301C083B390E002C080
:10028000959587956A95E2F78170089583B390E01C
:1002900002C0959587956A95E2F78170089581303F
:1002A00091F0813028F08230C9F0833061F521C0AF
:1002B0002BB381E090E002C0880F991F6A95E2F7A6
:1002C00028272BBB089528B381E090E002C0880F57
:1002D000991F6A95E2F7282728BB089525B381E086
:1002E00090E002C0880F991F6A95E2F7282725BB86
:1002F000089522B381E090E002C0880F991F6A95AB
:10030000E2F7282722BB08956130A9F4813051F02B
:10031000813028F0823049F08330F9F409C08FEF42
:100320008ABB08958FEF87BB08958FEF84BB089534
:100330008FEF81BB0895662381F4813049F08130CD
:1003400028F0823039F0833041F406C01ABA08959B
:1003500017BA089514BA089511BA08956130A9F42E
:10036000813051F0813028F0823049F0833081F5BE
:1003700009C08FEF8BBB08958FEF88BB08958FEF77
:1003800085BB08958FEF82BB0895662389F4813081
:1003900049F0813028F0823039F08330C9F406C04A
:1003A0001BBA089518BA089515BA089512BA089597
:1003B000813049F0813028F0823039F0833041F4C7
:1003C00006C06BBB089568BB089565BB089562BB0A
:1003D00008950F931F93182F80E060E041E00E9482
:1003E000BC0080E061E040E00E94BC0082E0612F40
:1003F0000E94AE0180E062E041E00E94BC0000ED9E
:1004000017E0C8010197F1F780E062E040E00E9448
:10041000BC00C8010197F1F71F910F910895EF9269
:10042000FF920F931F93CF93DF938C0197FF03C02D
:100430008DE20E94E90120E030E0C8016AE070E04E
:100440000E943403892B11F421E030E0C0E0D0E0B9
:10045000EE24FF241FC02130310519F40894E11C5B
:10046000F11CCE0133E0880F991F3A95E1F7CC0FCC
:10047000DD1FC80FD91FC8016AE070E00E94340375
:10048000C80FD91FC8016AE070E00E9434038B01D5
:1004900020E030E010161106F4F210C0CE016AE040
:1004A00070E00E942003482FCE016AE070E00E94B5
:1004B0002003EB01842F805D0E94E901209771F7F2
:1004C000E70104C080E30E94E90121972097D1F75A
:1004D000DF91CF911F910F91FF90EF900895CF93EF
:1004E000DF93EC0103C00E94E901219688818823F3
:1004F000D1F7DF91CF9108950F931F93182F80E0CC
:1005000060E040E00E94BC0080E061E040E00E94CA
:10051000BC0082E0612F0E94AE0180E062E041E019
:100520000E94BC0000ED17E0C8010197F1F780E0E0
:1005300062E040E00E94BC00C8010197F1F71F9102
:100540000F910895613019F0623041F404C0805871
:100550000E947C02089580540E947C0208950F93AB
:100560001F93CF93DF938C016830B0F4660F660F52
:10057000660F862F805C0E947C02C0E0D0E0F8010C
:10058000EC0FFD1F80810E94E9012196C830D10542
:10059000B1F780E80E947C02DF91CF911F910F910B
:1005A00008951F93182F883030F480E80E947C0251
:1005B000812F0E94E9011F9108950F931F9382E0FC
:1005C00061E00E94840180E060E041E00E94490017
:1005D00080E061E041E00E94490080E062E041E0AB
:1005E0000E94490084EF91E028EC30E0F901319756
:1005F000F1F70197D9F788E30E947C0200ED17E03C
:10060000C8010197F1F78CE00E947C02C8010197B4
:10061000F1F781E00E947C0280EA9FE00197F1F708
:1006200086E00E947C02C8010197F1F71F910F91AB
:1006300008950E94DD0280E690E00E946F02FFCFE5
:10064000AA1BBB1B51E107C0AA1FBB1FA617B707F8
:1006500010F0A61BB70B881F991F5A95A9F7809514
:100660009095BC01CD01089597FB092E07260AD06D
:1006700077FD04D0E5DF06D000201AF4709561956F
:100680007F4F0895F6F7909581959F4F0895F894C0
:02069000FFCF9A
:060692005261686D610079
:00000001FF
